{
  "_format": "hh-sol-artifact-1",
  "contractName": "MyNFT",
  "sourceName": "contracts/nft-contract.sol",
  "abi": [
    {
      "inputs": [
        {
          "internalType": "string",
          "name": "name",
          "type": "string"
        },
        {
          "internalType": "string",
          "name": "symbol",
          "type": "string"
        },
        {
          "internalType": "address",
          "name": "initialOwner",
          "type": "address"
        }
      ],
      "stateMutability": "nonpayable",
      "type": "constructor"
    },
    {
      "inputs": [],
      "name": "ERC721EnumerableForbiddenBatchMint",
      "type": "error"
    },
    {
      "inputs": [
        {
          "internalType": "address",
          "name": "sender",
          "type": "address"
        },
        {
          "internalType": "uint256",
          "name": "tokenId",
          "type": "uint256"
        },
        {
          "internalType": "address",
          "name": "owner",
          "type": "address"
        }
      ],
      "name": "ERC721IncorrectOwner",
      "type": "error"
    },
    {
      "inputs": [
        {
          "internalType": "address",
          "name": "operator",
          "type": "address"
        },
        {
          "internalType": "uint256",
          "name": "tokenId",
          "type": "uint256"
        }
      ],
      "name": "ERC721InsufficientApproval",
      "type": "error"
    },
    {
      "inputs": [
        {
          "internalType": "address",
          "name": "approver",
          "type": "address"
        }
      ],
      "name": "ERC721InvalidApprover",
      "type": "error"
    },
    {
      "inputs": [
        {
          "internalType": "address",
          "name": "operator",
          "type": "address"
        }
      ],
      "name": "ERC721InvalidOperator",
      "type": "error"
    },
    {
      "inputs": [
        {
          "internalType": "address",
          "name": "owner",
          "type": "address"
        }
      ],
      "name": "ERC721InvalidOwner",
      "type": "error"
    },
    {
      "inputs": [
        {
          "internalType": "address",
          "name": "receiver",
          "type": "address"
        }
      ],
      "name": "ERC721InvalidReceiver",
      "type": "error"
    },
    {
      "inputs": [
        {
          "internalType": "address",
          "name": "sender",
          "type": "address"
        }
      ],
      "name": "ERC721InvalidSender",
      "type": "error"
    },
    {
      "inputs": [
        {
          "internalType": "uint256",
          "name": "tokenId",
          "type": "uint256"
        }
      ],
      "name": "ERC721NonexistentToken",
      "type": "error"
    },
    {
      "inputs": [
        {
          "internalType": "address",
          "name": "owner",
          "type": "address"
        },
        {
          "internalType": "uint256",
          "name": "index",
          "type": "uint256"
        }
      ],
      "name": "ERC721OutOfBoundsIndex",
      "type": "error"
    },
    {
      "inputs": [
        {
          "internalType": "address",
          "name": "owner",
          "type": "address"
        }
      ],
      "name": "OwnableInvalidOwner",
      "type": "error"
    },
    {
      "inputs": [
        {
          "internalType": "address",
          "name": "account",
          "type": "address"
        }
      ],
      "name": "OwnableUnauthorizedAccount",
      "type": "error"
    },
    {
      "anonymous": false,
      "inputs": [
        {
          "indexed": true,
          "internalType": "address",
          "name": "owner",
          "type": "address"
        },
        {
          "indexed": true,
          "internalType": "address",
          "name": "approved",
          "type": "address"
        },
        {
          "indexed": true,
          "internalType": "uint256",
          "name": "tokenId",
          "type": "uint256"
        }
      ],
      "name": "Approval",
      "type": "event"
    },
    {
      "anonymous": false,
      "inputs": [
        {
          "indexed": true,
          "internalType": "address",
          "name": "owner",
          "type": "address"
        },
        {
          "indexed": true,
          "internalType": "address",
          "name": "operator",
          "type": "address"
        },
        {
          "indexed": false,
          "internalType": "bool",
          "name": "approved",
          "type": "bool"
        }
      ],
      "name": "ApprovalForAll",
      "type": "event"
    },
    {
      "anonymous": false,
      "inputs": [
        {
          "indexed": true,
          "internalType": "address",
          "name": "previousOwner",
          "type": "address"
        },
        {
          "indexed": true,
          "internalType": "address",
          "name": "newOwner",
          "type": "address"
        }
      ],
      "name": "OwnershipTransferred",
      "type": "event"
    },
    {
      "anonymous": false,
      "inputs": [
        {
          "indexed": true,
          "internalType": "address",
          "name": "from",
          "type": "address"
        },
        {
          "indexed": true,
          "internalType": "address",
          "name": "to",
          "type": "address"
        },
        {
          "indexed": true,
          "internalType": "uint256",
          "name": "tokenId",
          "type": "uint256"
        }
      ],
      "name": "Transfer",
      "type": "event"
    },
    {
      "inputs": [
        {
          "internalType": "address",
          "name": "to",
          "type": "address"
        },
        {
          "internalType": "uint256",
          "name": "tokenId",
          "type": "uint256"
        }
      ],
      "name": "approve",
      "outputs": [],
      "stateMutability": "nonpayable",
      "type": "function"
    },
    {
      "inputs": [
        {
          "internalType": "address",
          "name": "owner",
          "type": "address"
        }
      ],
      "name": "balanceOf",
      "outputs": [
        {
          "internalType": "uint256",
          "name": "",
          "type": "uint256"
        }
      ],
      "stateMutability": "view",
      "type": "function"
    },
    {
      "inputs": [
        {
          "internalType": "uint256",
          "name": "tokenId",
          "type": "uint256"
        }
      ],
      "name": "burn",
      "outputs": [],
      "stateMutability": "nonpayable",
      "type": "function"
    },
    {
      "inputs": [],
      "name": "contractURI",
      "outputs": [
        {
          "internalType": "string",
          "name": "",
          "type": "string"
        }
      ],
      "stateMutability": "view",
      "type": "function"
    },
    {
      "inputs": [
        {
          "internalType": "uint256",
          "name": "tokenId",
          "type": "uint256"
        }
      ],
      "name": "getApproved",
      "outputs": [
        {
          "internalType": "address",
          "name": "",
          "type": "address"
        }
      ],
      "stateMutability": "view",
      "type": "function"
    },
    {
      "inputs": [
        {
          "internalType": "address",
          "name": "owner",
          "type": "address"
        },
        {
          "internalType": "address",
          "name": "operator",
          "type": "address"
        }
      ],
      "name": "isApprovedForAll",
      "outputs": [
        {
          "internalType": "bool",
          "name": "",
          "type": "bool"
        }
      ],
      "stateMutability": "view",
      "type": "function"
    },
    {
      "inputs": [
        {
          "internalType": "string",
          "name": "uri",
          "type": "string"
        }
      ],
      "name": "mint",
      "outputs": [],
      "stateMutability": "nonpayable",
      "type": "function"
    },
    {
      "inputs": [],
      "name": "name",
      "outputs": [
        {
          "internalType": "string",
          "name": "",
          "type": "string"
        }
      ],
      "stateMutability": "view",
      "type": "function"
    },
    {
      "inputs": [],
      "name": "owner",
      "outputs": [
        {
          "internalType": "address",
          "name": "",
          "type": "address"
        }
      ],
      "stateMutability": "view",
      "type": "function"
    },
    {
      "inputs": [
        {
          "internalType": "uint256",
          "name": "tokenId",
          "type": "uint256"
        }
      ],
      "name": "ownerOf",
      "outputs": [
        {
          "internalType": "address",
          "name": "",
          "type": "address"
        }
      ],
      "stateMutability": "view",
      "type": "function"
    },
    {
      "inputs": [],
      "name": "renounceOwnership",
      "outputs": [],
      "stateMutability": "nonpayable",
      "type": "function"
    },
    {
      "inputs": [
        {
          "internalType": "address",
          "name": "from",
          "type": "address"
        },
        {
          "internalType": "address",
          "name": "to",
          "type": "address"
        },
        {
          "internalType": "uint256",
          "name": "tokenId",
          "type": "uint256"
        }
      ],
      "name": "safeTransferFrom",
      "outputs": [],
      "stateMutability": "nonpayable",
      "type": "function"
    },
    {
      "inputs": [
        {
          "internalType": "address",
          "name": "from",
          "type": "address"
        },
        {
          "internalType": "address",
          "name": "to",
          "type": "address"
        },
        {
          "internalType": "uint256",
          "name": "tokenId",
          "type": "uint256"
        },
        {
          "internalType": "bytes",
          "name": "data",
          "type": "bytes"
        }
      ],
      "name": "safeTransferFrom",
      "outputs": [],
      "stateMutability": "nonpayable",
      "type": "function"
    },
    {
      "inputs": [
        {
          "internalType": "address",
          "name": "operator",
          "type": "address"
        },
        {
          "internalType": "bool",
          "name": "approved",
          "type": "bool"
        }
      ],
      "name": "setApprovalForAll",
      "outputs": [],
      "stateMutability": "nonpayable",
      "type": "function"
    },
    {
      "inputs": [
        {
          "internalType": "string",
          "name": "uri",
          "type": "string"
        }
      ],
      "name": "setContractURI",
      "outputs": [],
      "stateMutability": "nonpayable",
      "type": "function"
    },
    {
      "inputs": [
        {
          "internalType": "bytes4",
          "name": "interfaceId",
          "type": "bytes4"
        }
      ],
      "name": "supportsInterface",
      "outputs": [
        {
          "internalType": "bool",
          "name": "",
          "type": "bool"
        }
      ],
      "stateMutability": "view",
      "type": "function"
    },
    {
      "inputs": [],
      "name": "symbol",
      "outputs": [
        {
          "internalType": "string",
          "name": "",
          "type": "string"
        }
      ],
      "stateMutability": "view",
      "type": "function"
    },
    {
      "inputs": [
        {
          "internalType": "uint256",
          "name": "index",
          "type": "uint256"
        }
      ],
      "name": "tokenByIndex",
      "outputs": [
        {
          "internalType": "uint256",
          "name": "",
          "type": "uint256"
        }
      ],
      "stateMutability": "view",
      "type": "function"
    },
    {
      "inputs": [
        {
          "internalType": "address",
          "name": "owner",
          "type": "address"
        },
        {
          "internalType": "uint256",
          "name": "index",
          "type": "uint256"
        }
      ],
      "name": "tokenOfOwnerByIndex",
      "outputs": [
        {
          "internalType": "uint256",
          "name": "",
          "type": "uint256"
        }
      ],
      "stateMutability": "view",
      "type": "function"
    },
    {
      "inputs": [
        {
          "internalType": "uint256",
          "name": "tokenId",
          "type": "uint256"
        }
      ],
      "name": "tokenURI",
      "outputs": [
        {
          "internalType": "string",
          "name": "",
          "type": "string"
        }
      ],
      "stateMutability": "view",
      "type": "function"
    },
    {
      "inputs": [],
      "name": "totalSupply",
      "outputs": [
        {
          "internalType": "uint256",
          "name": "",
          "type": "uint256"
        }
      ],
      "stateMutability": "view",
      "type": "function"
    },
    {
      "inputs": [
        {
          "internalType": "address",
          "name": "from",
          "type": "address"
        },
        {
          "internalType": "address",
          "name": "to",
          "type": "address"
        },
        {
          "internalType": "uint256",
          "name": "tokenId",
          "type": "uint256"
        }
      ],
      "name": "transferFrom",
      "outputs": [],
      "stateMutability": "nonpayable",
      "type": "function"
    },
    {
      "inputs": [
        {
          "internalType": "address",
          "name": "newOwner",
          "type": "address"
        }
      ],
      "name": "transferOwnership",
      "outputs": [],
      "stateMutability": "nonpayable",
      "type": "function"
    }
  ],
  "bytecode": "0x608060405234801561001057600080fd5b506040516131ff3803806131ff8339818101604052810190610032919061037a565b80838381600090816100449190610626565b5080600190816100549190610626565b505050600073ffffffffffffffffffffffffffffffffffffffff168173ffffffffffffffffffffffffffffffffffffffff16036100c95760006040517f1e4fbdf70000000000000000000000000000000000000000000000000000000081526004016100c09190610707565b60405180910390fd5b6100d8816100e160201b60201c565b50505050610722565b6000600a60009054906101000a900473ffffffffffffffffffffffffffffffffffffffff16905081600a60006101000a81548173ffffffffffffffffffffffffffffffffffffffff021916908373ffffffffffffffffffffffffffffffffffffffff1602179055508173ffffffffffffffffffffffffffffffffffffffff168173ffffffffffffffffffffffffffffffffffffffff167f8be0079c531659141344cd1fd0a4f28419497f9722a3daafe3b4186f6b6457e060405160405180910390a35050565b6000604051905090565b600080fd5b600080fd5b600080fd5b600080fd5b6000601f19601f8301169050919050565b7f4e487b7100000000000000000000000000000000000000000000000000000000600052604160045260246000fd5b61020e826101c5565b810181811067ffffffffffffffff8211171561022d5761022c6101d6565b5b80604052505050565b60006102406101a7565b905061024c8282610205565b919050565b600067ffffffffffffffff82111561026c5761026b6101d6565b5b610275826101c5565b9050602081019050919050565b60005b838110156102a0578082015181840152602081019050610285565b60008484015250505050565b60006102bf6102ba84610251565b610236565b9050828152602081018484840111156102db576102da6101c0565b5b6102e6848285610282565b509392505050565b600082601f830112610303576103026101bb565b5b81516103138482602086016102ac565b91505092915050565b600073ffffffffffffffffffffffffffffffffffffffff82169050919050565b60006103478261031c565b9050919050565b6103578161033c565b811461036257600080fd5b50565b6000815190506103748161034e565b92915050565b600080600060608486031215610393576103926101b1565b5b600084015167ffffffffffffffff8111156103b1576103b06101b6565b5b6103bd868287016102ee565b935050602084015167ffffffffffffffff8111156103de576103dd6101b6565b5b6103ea868287016102ee565b92505060406103fb86828701610365565b9150509250925092565b600081519050919050565b7f4e487b7100000000000000000000000000000000000000000000000000000000600052602260045260246000fd5b6000600282049050600182168061045757607f821691505b60208210810361046a57610469610410565b5b50919050565b60008190508160005260206000209050919050565b60006020601f8301049050919050565b600082821b905092915050565b6000600883026104d27fffffffffffffffffffffffffffffffffffffffffffffffffffffffffffffffff82610495565b6104dc8683610495565b95508019841693508086168417925050509392505050565b6000819050919050565b6000819050919050565b600061052361051e610519846104f4565b6104fe565b6104f4565b9050919050565b6000819050919050565b61053d83610508565b6105516105498261052a565b8484546104a2565b825550505050565b600090565b610566610559565b610571818484610534565b505050565b5b818110156105955761058a60008261055e565b600181019050610577565b5050565b601f8211156105da576105ab81610470565b6105b484610485565b810160208510156105c3578190505b6105d76105cf85610485565b830182610576565b50505b505050565b600082821c905092915050565b60006105fd600019846008026105df565b1980831691505092915050565b600061061683836105ec565b9150826002028217905092915050565b61062f82610405565b67ffffffffffffffff811115610648576106476101d6565b5b610652825461043f565b61065d828285610599565b600060209050601f831160018114610690576000841561067e578287015190505b610688858261060a565b8655506106f0565b601f19841661069e86610470565b60005b828110156106c6578489015182556001820191506020850194506020810190506106a1565b868310156106e357848901516106df601f8916826105ec565b8355505b6001600288020188555050505b505050505050565b6107018161033c565b82525050565b600060208201905061071c60008301846106f8565b92915050565b612ace806107316000396000f3fe608060405234801561001057600080fd5b506004361061014d5760003560e01c806370a08231116100c3578063b88d4fde1161007c578063b88d4fde1461039c578063c87b56dd146103b8578063d85d3d27146103e8578063e8a3d48514610404578063e985e9c514610422578063f2fde38b146104525761014d565b806370a08231146102ee578063715018a61461031e5780638da5cb5b14610328578063938e3d7b1461034657806395d89b4114610362578063a22cb465146103805761014d565b806323b872dd1161011557806323b872dd1461020a5780632f745c591461022657806342842e0e1461025657806342966c68146102725780634f6ccce71461028e5780636352211e146102be5761014d565b806301ffc9a71461015257806306fdde0314610182578063081812fc146101a0578063095ea7b3146101d057806318160ddd146101ec575b600080fd5b61016c60048036038101906101679190611eca565b61046e565b6040516101799190611f12565b60405180910390f35b61018a610480565b6040516101979190611fbd565b60405180910390f35b6101ba60048036038101906101b59190612015565b610512565b6040516101c79190612083565b60405180910390f35b6101ea60048036038101906101e591906120ca565b61052e565b005b6101f4610544565b6040516102019190612119565b60405180910390f35b610224600480360381019061021f9190612134565b610551565b005b610240600480360381019061023b91906120ca565b610653565b60405161024d9190612119565b60405180910390f35b610270600480360381019061026b9190612134565b6106fc565b005b61028c60048036038101906102879190612015565b61071c565b005b6102a860048036038101906102a39190612015565b610733565b6040516102b59190612119565b60405180910390f35b6102d860048036038101906102d39190612015565b6107a9565b6040516102e59190612083565b60405180910390f35b61030860048036038101906103039190612187565b6107bb565b6040516103159190612119565b60405180910390f35b610326610875565b005b610330610889565b60405161033d9190612083565b60405180910390f35b610360600480360381019061035b91906122e9565b6108b3565b005b61036a6108ce565b6040516103779190611fbd565b60405180910390f35b61039a6004803603810190610395919061235e565b610960565b005b6103b660048036038101906103b1919061243f565b610976565b005b6103d260048036038101906103cd9190612015565b61099b565b6040516103df9190611fbd565b60405180910390f35b61040260048036038101906103fd91906122e9565b610ab7565b005b61040c610b01565b6040516104199190611fbd565b60405180910390f35b61043c600480360381019061043791906124c2565b610b93565b6040516104499190611f12565b60405180910390f35b61046c60048036038101906104679190612187565b610c27565b005b600061047982610cad565b9050919050565b60606000805461048f90612531565b80601f01602080910402602001604051908101604052809291908181526020018280546104bb90612531565b80156105085780601f106104dd57610100808354040283529160200191610508565b820191906000526020600020905b8154815290600101906020018083116104eb57829003601f168201915b5050505050905090565b600061051d82610d27565b5061052782610daf565b9050919050565b610540828261053b610dec565b610df4565b5050565b6000600880549050905090565b600073ffffffffffffffffffffffffffffffffffffffff168273ffffffffffffffffffffffffffffffffffffffff16036105c35760006040517f64a0ae920000000000000000000000000000000000000000000000000000000081526004016105ba9190612083565b60405180910390fd5b60006105d783836105d2610dec565b610e06565b90508373ffffffffffffffffffffffffffffffffffffffff168173ffffffffffffffffffffffffffffffffffffffff161461064d578382826040517f64283d7b00000000000000000000000000000000000000000000000000000000815260040161064493929190612562565b60405180910390fd5b50505050565b600061065e836107bb565b82106106a35782826040517fa57d13dc00000000000000000000000000000000000000000000000000000000815260040161069a929190612599565b60405180910390fd5b600660008473ffffffffffffffffffffffffffffffffffffffff1673ffffffffffffffffffffffffffffffffffffffff168152602001908152602001600020600083815260200190815260200160002054905092915050565b61071783838360405180602001604052806000815250610976565b505050565b61072f60008261072a610dec565b610e06565b5050565b600061073d610544565b8210610783576000826040517fa57d13dc00000000000000000000000000000000000000000000000000000000815260040161077a929190612599565b60405180910390fd5b60088281548110610797576107966125c2565b5b90600052602060002001549050919050565b60006107b482610d27565b9050919050565b60008073ffffffffffffffffffffffffffffffffffffffff168273ffffffffffffffffffffffffffffffffffffffff160361082e5760006040517f89c62b640000000000000000000000000000000000000000000000000000000081526004016108259190612083565b60405180910390fd5b600360008373ffffffffffffffffffffffffffffffffffffffff1673ffffffffffffffffffffffffffffffffffffffff168152602001908152602001600020549050919050565b61087d610e1c565b6108876000610ea3565b565b6000600a60009054906101000a900473ffffffffffffffffffffffffffffffffffffffff16905090565b6108bb610e1c565b80600d90816108ca919061279d565b5050565b6060600180546108dd90612531565b80601f016020809104026020016040519081016040528092919081815260200182805461090990612531565b80156109565780601f1061092b57610100808354040283529160200191610956565b820191906000526020600020905b81548152906001019060200180831161093957829003601f168201915b5050505050905090565b61097261096b610dec565b8383610f69565b5050565b610981848484610551565b61099561098c610dec565b858585856110d8565b50505050565b6060600073ffffffffffffffffffffffffffffffffffffffff166109be83611289565b73ffffffffffffffffffffffffffffffffffffffff1603610a14576040517f08c379a0000000000000000000000000000000000000000000000000000000008152600401610a0b906128bb565b60405180910390fd5b600c60008381526020019081526020016000208054610a3290612531565b80601f0160208091040260200160405190810160405280929190818152602001828054610a5e90612531565b8015610aab5780601f10610a8057610100808354040283529160200191610aab565b820191906000526020600020905b815481529060010190602001808311610a8e57829003601f168201915b50505050509050919050565b6000600b6000815480929190610acc9061290a565b919050559050610adc33826112c6565b81600c60008381526020019081526020016000209081610afc919061279d565b505050565b6060600d8054610b1090612531565b80601f0160208091040260200160405190810160405280929190818152602001828054610b3c90612531565b8015610b895780601f10610b5e57610100808354040283529160200191610b89565b820191906000526020600020905b815481529060010190602001808311610b6c57829003601f168201915b5050505050905090565b6000600560008473ffffffffffffffffffffffffffffffffffffffff1673ffffffffffffffffffffffffffffffffffffffff16815260200190815260200160002060008373ffffffffffffffffffffffffffffffffffffffff1673ffffffffffffffffffffffffffffffffffffffff16815260200190815260200160002060009054906101000a900460ff16905092915050565b610c2f610e1c565b600073ffffffffffffffffffffffffffffffffffffffff168173ffffffffffffffffffffffffffffffffffffffff1603610ca15760006040517f1e4fbdf7000000000000000000000000000000000000000000000000000000008152600401610c989190612083565b60405180910390fd5b610caa81610ea3565b50565b60007f780e9d63000000000000000000000000000000000000000000000000000000007bffffffffffffffffffffffffffffffffffffffffffffffffffffffff1916827bffffffffffffffffffffffffffffffffffffffffffffffffffffffff19161480610d205750610d1f826112e4565b5b9050919050565b600080610d3383611289565b9050600073ffffffffffffffffffffffffffffffffffffffff168173ffffffffffffffffffffffffffffffffffffffff1603610da657826040517f7e273289000000000000000000000000000000000000000000000000000000008152600401610d9d9190612119565b60405180910390fd5b80915050919050565b60006004600083815260200190815260200160002060009054906101000a900473ffffffffffffffffffffffffffffffffffffffff169050919050565b600033905090565b610e0183838360016113c6565b505050565b6000610e1384848461158b565b90509392505050565b610e24610dec565b73ffffffffffffffffffffffffffffffffffffffff16610e42610889565b73ffffffffffffffffffffffffffffffffffffffff1614610ea157610e65610dec565b6040517f118cdaa7000000000000000000000000000000000000000000000000000000008152600401610e989190612083565b60405180910390fd5b565b6000600a60009054906101000a900473ffffffffffffffffffffffffffffffffffffffff16905081600a60006101000a81548173ffffffffffffffffffffffffffffffffffffffff021916908373ffffffffffffffffffffffffffffffffffffffff1602179055508173ffffffffffffffffffffffffffffffffffffffff168173ffffffffffffffffffffffffffffffffffffffff167f8be0079c531659141344cd1fd0a4f28419497f9722a3daafe3b4186f6b6457e060405160405180910390a35050565b600073ffffffffffffffffffffffffffffffffffffffff168273ffffffffffffffffffffffffffffffffffffffff1603610fda57816040517f5b08ba18000000000000000000000000000000000000000000000000000000008152600401610fd19190612083565b60405180910390fd5b80600560008573ffffffffffffffffffffffffffffffffffffffff1673ffffffffffffffffffffffffffffffffffffffff16815260200190815260200160002060008473ffffffffffffffffffffffffffffffffffffffff1673ffffffffffffffffffffffffffffffffffffffff16815260200190815260200160002060006101000a81548160ff0219169083151502179055508173ffffffffffffffffffffffffffffffffffffffff168373ffffffffffffffffffffffffffffffffffffffff167f17307eab39ab6107e8899845ad3d59bd9653f200f220920489ca2b5937696c31836040516110cb9190611f12565b60405180910390a3505050565b60008373ffffffffffffffffffffffffffffffffffffffff163b1115611282578273ffffffffffffffffffffffffffffffffffffffff1663150b7a02868685856040518563ffffffff1660e01b815260040161113794939291906129a7565b6020604051808303816000875af192505050801561117357506040513d601f19601f820116820180604052508101906111709190612a08565b60015b6111f7573d80600081146111a3576040519150601f19603f3d011682016040523d82523d6000602084013e6111a8565b606091505b5060008151036111ef57836040517f64a0ae920000000000000000000000000000000000000000000000000000000081526004016111e69190612083565b60405180910390fd5b805181602001fd5b63150b7a0260e01b7bffffffffffffffffffffffffffffffffffffffffffffffffffffffff1916817bffffffffffffffffffffffffffffffffffffffffffffffffffffffff19161461128057836040517f64a0ae920000000000000000000000000000000000000000000000000000000081526004016112779190612083565b60405180910390fd5b505b5050505050565b60006002600083815260200190815260200160002060009054906101000a900473ffffffffffffffffffffffffffffffffffffffff169050919050565b6112e08282604051806020016040528060008152506116a8565b5050565b60007f80ac58cd000000000000000000000000000000000000000000000000000000007bffffffffffffffffffffffffffffffffffffffffffffffffffffffff1916827bffffffffffffffffffffffffffffffffffffffffffffffffffffffff191614806113af57507f5b5e139f000000000000000000000000000000000000000000000000000000007bffffffffffffffffffffffffffffffffffffffffffffffffffffffff1916827bffffffffffffffffffffffffffffffffffffffffffffffffffffffff1916145b806113bf57506113be826116cc565b5b9050919050565b80806113ff5750600073ffffffffffffffffffffffffffffffffffffffff168273ffffffffffffffffffffffffffffffffffffffff1614155b1561153357600061140f84610d27565b9050600073ffffffffffffffffffffffffffffffffffffffff168373ffffffffffffffffffffffffffffffffffffffff161415801561147a57508273ffffffffffffffffffffffffffffffffffffffff168173ffffffffffffffffffffffffffffffffffffffff1614155b801561148d575061148b8184610b93565b155b156114cf57826040517fa9fbf51f0000000000000000000000000000000000000000000000000000000081526004016114c69190612083565b60405180910390fd5b811561153157838573ffffffffffffffffffffffffffffffffffffffff168273ffffffffffffffffffffffffffffffffffffffff167f8c5be1e5ebec7d5bd14f71427d1e84f3dd0314c0f7b2291e5b200ac8c7c3b92560405160405180910390a45b505b836004600085815260200190815260200160002060006101000a81548173ffffffffffffffffffffffffffffffffffffffff021916908373ffffffffffffffffffffffffffffffffffffffff16021790555050505050565b600080611599858585611736565b9050600073ffffffffffffffffffffffffffffffffffffffff168173ffffffffffffffffffffffffffffffffffffffff16036115dd576115d884611950565b61161c565b8473ffffffffffffffffffffffffffffffffffffffff168173ffffffffffffffffffffffffffffffffffffffff161461161b5761161a8185611999565b5b5b600073ffffffffffffffffffffffffffffffffffffffff168573ffffffffffffffffffffffffffffffffffffffff160361165e5761165984611a84565b61169d565b8473ffffffffffffffffffffffffffffffffffffffff168173ffffffffffffffffffffffffffffffffffffffff161461169c5761169b8585611b55565b5b5b809150509392505050565b6116b28383611be0565b6116c76116bd610dec565b60008585856110d8565b505050565b60007f01ffc9a7000000000000000000000000000000000000000000000000000000007bffffffffffffffffffffffffffffffffffffffffffffffffffffffff1916827bffffffffffffffffffffffffffffffffffffffffffffffffffffffff1916149050919050565b60008061174284611289565b9050600073ffffffffffffffffffffffffffffffffffffffff168373ffffffffffffffffffffffffffffffffffffffff161461178457611783818486611cd9565b5b600073ffffffffffffffffffffffffffffffffffffffff168173ffffffffffffffffffffffffffffffffffffffff1614611815576117c66000856000806113c6565b6001600360008373ffffffffffffffffffffffffffffffffffffffff1673ffffffffffffffffffffffffffffffffffffffff168152602001908152602001600020600082825403925050819055505b600073ffffffffffffffffffffffffffffffffffffffff168573ffffffffffffffffffffffffffffffffffffffff1614611898576001600360008773ffffffffffffffffffffffffffffffffffffffff1673ffffffffffffffffffffffffffffffffffffffff168152602001908152602001600020600082825401925050819055505b846002600086815260200190815260200160002060006101000a81548173ffffffffffffffffffffffffffffffffffffffff021916908373ffffffffffffffffffffffffffffffffffffffff160217905550838573ffffffffffffffffffffffffffffffffffffffff168273ffffffffffffffffffffffffffffffffffffffff167fddf252ad1be2c89b69c2b068fc378daa952ba7f163c4a11628f55a4df523b3ef60405160405180910390a4809150509392505050565b6008805490506009600083815260200190815260200160002081905550600881908060018154018082558091505060019003906000526020600020016000909190919091505550565b60006119a4836107bb565b90506000600760008481526020019081526020016000205490506000600660008673ffffffffffffffffffffffffffffffffffffffff1673ffffffffffffffffffffffffffffffffffffffff1681526020019081526020016000209050828214611a505760008160008581526020019081526020016000205490508082600085815260200190815260200160002081905550826007600083815260200190815260200160002081905550505b6007600085815260200190815260200160002060009055806000848152602001908152602001600020600090555050505050565b60006001600880549050611a989190612a35565b9050600060096000848152602001908152602001600020549050600060088381548110611ac857611ac76125c2565b5b906000526020600020015490508060088381548110611aea57611ae96125c2565b5b906000526020600020018190555081600960008381526020019081526020016000208190555060096000858152602001908152602001600020600090556008805480611b3957611b38612a69565b5b6001900381819060005260206000200160009055905550505050565b60006001611b62846107bb565b611b6c9190612a35565b905081600660008573ffffffffffffffffffffffffffffffffffffffff1673ffffffffffffffffffffffffffffffffffffffff168152602001908152602001600020600083815260200190815260200160002081905550806007600084815260200190815260200160002081905550505050565b600073ffffffffffffffffffffffffffffffffffffffff168273ffffffffffffffffffffffffffffffffffffffff1603611c525760006040517f64a0ae92000000000000000000000000000000000000000000000000000000008152600401611c499190612083565b60405180910390fd5b6000611c6083836000610e06565b9050600073ffffffffffffffffffffffffffffffffffffffff168173ffffffffffffffffffffffffffffffffffffffff1614611cd45760006040517f73c6ac6e000000000000000000000000000000000000000000000000000000008152600401611ccb9190612083565b60405180910390fd5b505050565b611ce4838383611d9d565b611d9857600073ffffffffffffffffffffffffffffffffffffffff168373ffffffffffffffffffffffffffffffffffffffff1603611d5957806040517f7e273289000000000000000000000000000000000000000000000000000000008152600401611d509190612119565b60405180910390fd5b81816040517f177e802f000000000000000000000000000000000000000000000000000000008152600401611d8f929190612599565b60405180910390fd5b505050565b60008073ffffffffffffffffffffffffffffffffffffffff168373ffffffffffffffffffffffffffffffffffffffff1614158015611e5557508273ffffffffffffffffffffffffffffffffffffffff168473ffffffffffffffffffffffffffffffffffffffff161480611e165750611e158484610b93565b5b80611e5457508273ffffffffffffffffffffffffffffffffffffffff16611e3c83610daf565b73ffffffffffffffffffffffffffffffffffffffff16145b5b90509392505050565b6000604051905090565b600080fd5b600080fd5b60007fffffffff0000000000000000000000000000000000000000000000000000000082169050919050565b611ea781611e72565b8114611eb257600080fd5b50565b600081359050611ec481611e9e565b92915050565b600060208284031215611ee057611edf611e68565b5b6000611eee84828501611eb5565b91505092915050565b60008115159050919050565b611f0c81611ef7565b82525050565b6000602082019050611f276000830184611f03565b92915050565b600081519050919050565b600082825260208201905092915050565b60005b83811015611f67578082015181840152602081019050611f4c565b60008484015250505050565b6000601f19601f8301169050919050565b6000611f8f82611f2d565b611f998185611f38565b9350611fa9818560208601611f49565b611fb281611f73565b840191505092915050565b60006020820190508181036000830152611fd78184611f84565b905092915050565b6000819050919050565b611ff281611fdf565b8114611ffd57600080fd5b50565b60008135905061200f81611fe9565b92915050565b60006020828403121561202b5761202a611e68565b5b600061203984828501612000565b91505092915050565b600073ffffffffffffffffffffffffffffffffffffffff82169050919050565b600061206d82612042565b9050919050565b61207d81612062565b82525050565b60006020820190506120986000830184612074565b92915050565b6120a781612062565b81146120b257600080fd5b50565b6000813590506120c48161209e565b92915050565b600080604083850312156120e1576120e0611e68565b5b60006120ef858286016120b5565b925050602061210085828601612000565b9150509250929050565b61211381611fdf565b82525050565b600060208201905061212e600083018461210a565b92915050565b60008060006060848603121561214d5761214c611e68565b5b600061215b868287016120b5565b935050602061216c868287016120b5565b925050604061217d86828701612000565b9150509250925092565b60006020828403121561219d5761219c611e68565b5b60006121ab848285016120b5565b91505092915050565b600080fd5b600080fd5b7f4e487b7100000000000000000000000000000000000000000000000000000000600052604160045260246000fd5b6121f682611f73565b810181811067ffffffffffffffff82111715612215576122146121be565b5b80604052505050565b6000612228611e5e565b905061223482826121ed565b919050565b600067ffffffffffffffff821115612254576122536121be565b5b61225d82611f73565b9050602081019050919050565b82818337600083830152505050565b600061228c61228784612239565b61221e565b9050828152602081018484840111156122a8576122a76121b9565b5b6122b384828561226a565b509392505050565b600082601f8301126122d0576122cf6121b4565b5b81356122e0848260208601612279565b91505092915050565b6000602082840312156122ff576122fe611e68565b5b600082013567ffffffffffffffff81111561231d5761231c611e6d565b5b612329848285016122bb565b91505092915050565b61233b81611ef7565b811461234657600080fd5b50565b60008135905061235881612332565b92915050565b6000806040838503121561237557612374611e68565b5b6000612383858286016120b5565b925050602061239485828601612349565b9150509250929050565b600067ffffffffffffffff8211156123b9576123b86121be565b5b6123c282611f73565b9050602081019050919050565b60006123e26123dd8461239e565b61221e565b9050828152602081018484840111156123fe576123fd6121b9565b5b61240984828561226a565b509392505050565b600082601f830112612426576124256121b4565b5b81356124368482602086016123cf565b91505092915050565b6000806000806080858703121561245957612458611e68565b5b6000612467878288016120b5565b9450506020612478878288016120b5565b935050604061248987828801612000565b925050606085013567ffffffffffffffff8111156124aa576124a9611e6d565b5b6124b687828801612411565b91505092959194509250565b600080604083850312156124d9576124d8611e68565b5b60006124e7858286016120b5565b92505060206124f8858286016120b5565b9150509250929050565b7f4e487b7100000000000000000000000000000000000000000000000000000000600052602260045260246000fd5b6000600282049050600182168061254957607f821691505b60208210810361255c5761255b612502565b5b50919050565b60006060820190506125776000830186612074565b612584602083018561210a565b6125916040830184612074565b949350505050565b60006040820190506125ae6000830185612074565b6125bb602083018461210a565b9392505050565b7f4e487b7100000000000000000000000000000000000000000000000000000000600052603260045260246000fd5b60008190508160005260206000209050919050565b60006020601f8301049050919050565b600082821b905092915050565b6000600883026126537fffffffffffffffffffffffffffffffffffffffffffffffffffffffffffffffff82612616565b61265d8683612616565b95508019841693508086168417925050509392505050565b6000819050919050565b600061269a61269561269084611fdf565b612675565b611fdf565b9050919050565b6000819050919050565b6126b48361267f565b6126c86126c0826126a1565b848454612623565b825550505050565b600090565b6126dd6126d0565b6126e88184846126ab565b505050565b5b8181101561270c576127016000826126d5565b6001810190506126ee565b5050565b601f82111561275157612722816125f1565b61272b84612606565b8101602085101561273a578190505b61274e61274685612606565b8301826126ed565b50505b505050565b600082821c905092915050565b600061277460001984600802612756565b1980831691505092915050565b600061278d8383612763565b9150826002028217905092915050565b6127a682611f2d565b67ffffffffffffffff8111156127bf576127be6121be565b5b6127c98254612531565b6127d4828285612710565b600060209050601f83116001811461280757600084156127f5578287015190505b6127ff8582612781565b865550612867565b601f198416612815866125f1565b60005b8281101561283d57848901518255600182019150602085019450602081019050612818565b8683101561285a5784890151612856601f891682612763565b8355505b6001600288020188555050505b505050505050565b7f4552433732313a20696e76616c696420746f6b656e2049440000000000000000600082015250565b60006128a5601883611f38565b91506128b08261286f565b602082019050919050565b600060208201905081810360008301526128d481612898565b9050919050565b7f4e487b7100000000000000000000000000000000000000000000000000000000600052601160045260246000fd5b600061291582611fdf565b91507fffffffffffffffffffffffffffffffffffffffffffffffffffffffffffffffff8203612947576129466128db565b5b600182019050919050565b600081519050919050565b600082825260208201905092915050565b600061297982612952565b612983818561295d565b9350612993818560208601611f49565b61299c81611f73565b840191505092915050565b60006080820190506129bc6000830187612074565b6129c96020830186612074565b6129d6604083018561210a565b81810360608301526129e8818461296e565b905095945050505050565b600081519050612a0281611e9e565b92915050565b600060208284031215612a1e57612a1d611e68565b5b6000612a2c848285016129f3565b91505092915050565b6000612a4082611fdf565b9150612a4b83611fdf565b9250828203905081811115612a6357612a626128db565b5b92915050565b7f4e487b7100000000000000000000000000000000000000000000000000000000600052603160045260246000fdfea26469706673582212200ef1d653611d337d44c858e6054a20daf47b6492b13239a7f46308db60e3155164736f6c634300081c0033",
  "linkReferences": {},
  "deployedLinkReferences": {}
}